00001BRACO REGULAVEL P/ MONITOR 14-15"                           000001405710112005
00002CABO DE FORCA (P/GABINETE OU MONITOR)                       000000018610112005
00003CABO FLAT IDE 40 PINOS                                      000000084610112005
00004CABO P/IMPRESSORA (BITRONIC) USB                            000000039610112005
00005CABO P/IMPRESSORA (BITRONIC)PARALELO                        000000049410112005
00006CABO P/MONITOR SAMSUNG OU COMPATIVEL-8320                   000000109910112005
00007CABO PARA FLOPPY - ROUND CABLE                              000000212710112005
00008CAIXA DE SOM AMPLIFICADA - 120 PMPO                         000000172110112005
00009CAIXA DE SOM AMPLIFICADA - 180 PMPO                         000000249310112005
00010CAIXA DE SOM AMPLIFICADA - 180 PMPO-PRETO                   000000197910112005
00011CAIXA DE SOM AMPLIFICADA - 300 PMPO                         000000173910112005
00012CAIXA DE SOM AMPLIFICADA - 380 PMPO-PRETO/PRA               000000178610112005
00013CAIXA DE SOM AMPLIFICADA - 420 PMPO-AS819A                  000001160810112005
00014CAIXA DE SOM AMPLIFICADA - 700 PMPO-B-SS4516                000000394310112005
00015CAIXA DE SOM AMPLIFICADA - 700 PMPO-P-SS4516                000000433710112005
00016CAIXA DE SOM AMPLIFICADA - 950 PMPO-AS959                   000000133110112005
00017CAIXA DE SOM AMPLIFICADA -1200 PMPO-SS2201                  000001392310112005
00018CAMERA DIGITAL MARINER 1300-SUBAQUATICA                     000003632610112005
00019CAMERA DIGITAL SONY CYBERSHOT S40                           000009296910112005
00020CAMERA DIGITAL SONY CYBERSHOT S90                           000012218210112005
00021CAMERA DIGITAL SONY CYBERSHOT-P93                           000014742410112005
00022CAMERA PC BRAVIEW 430MPS                                    000000735210112005
00023CAMERA PC BRAVIEW 560M-35 FRAMES-PRATA                      000000097810112005
00024CAMERA PC BRAVIEW 560M-35 FRAMES-PRETA                      000000942710112005
00025CAMERA PC BRAVIEW 760MP PRE                                 000001043910112005
00026CAMERA WEB CAM EASY-DATAVISION-30 FRAMES-PRAT               000000699310112005
00027CAMERA WEB CAM INFRARED-EUROCASE-30 FRAMES-PR               000001300710112005
00028CAMERA WEB CAM SPACE-EUROCASE-30 FRAMES-PRATA               000001033110112005
00029CARREGADOR PARA PILHAS RECARREGAVEIS                        000000083810112005
00030CARTUCHO FITA DAT SONY 20/40-DGD150P                        000000553310112005
00031CARTUCHO HP 8727AL 10ML PRETO                               000000718910112005
00032CD VIRGEM - MINI - 193MB/22MIN                              000000032810112005
00033CD VIRGEM PACOTE COM 50 UN(PRATA)                           000000535710112005
00034CD-ROM 52X                                                  000000529710112005
00035CD-ROM 52X PRETO                                            000000762310112005
00036COOLER FAN AMD ATHLON 64/SEMPRON-S754-05F933B               000000419210112005
00037COOLER FAN AMD ATHLON 64/SEMPRON-S754-DK8-8ID               000000420410112005
00038COOLER FAN AMD THUNDER-SEMPRON 2800                         000000220710112005
00039COOLER FAN AMD XP3.200 COBRE-AK824-CU-IP                    000000287410112005
00040COOLER FAN AMD XP3.200 COBRE-X-DREAM III                    000000309410112005
00041COOLER FAN HYPER 6 COBRE-PIV478/HT-AMDS754/S9               000002411110112005
00042COOLER FAN JET 4 COBRE-PIV 478/HT                           000000635210112005
00043COOLER FAN K6/MMX/FCPGA-BALL                                000000096510112005
00044COOLER FAN P/ P4-3.4GHZ BASE COBRE AK687                    000000582910112005
00045COOLER FAN P/ P4-3.8GHZ LGA775-CI5-9JDSB-OL                 000000602710112005
00046COOLER FAN P/ P4-478 PINOS                                  000000281510112005
00047COOLER FAN P/ P4-HT 3.0GHZ-COBR -478PINOS                   000000409410112005
00048COOLER FAN P/ P4-HT -478                                    000000307510112005
00049COOLER FAN VORTEX-COBRE-754/775/478/462 PINOS               000002300510112005
00050COOLER P/GABINETE LIGADO NA PLACA MAE                       000000085510112005
00051COOLER P/GABINETE/LIGADO NA FONTE                           000000081410112005
00052COOLER P/GABINETE/LIGADO NA FONTE-COLOR                     000000014910112005
00053CPU AMD ATHLON 64 2800-1.800GHZ-S754-64BITS                 000004292410112005
00054CPU AMD SEMPRON 2500-1.750GHZ                               000002624110112005
00055CPU AMD SEMPRON 2800-2.000GHZ                               000002927110112005
00056CPU AMD SEMPRON-2500-1.400GHZ-S754-32BITS                   000001954410112005
00057CPU AMD SEMPRON-2600-1.600GHZ-S754-32BITS                   000002298110112005
00058CPU AMD SEMPRON-3100-1.800GHZ-S754-32BITS                   000004545110112005
00059CPU INTEL CELERON 2.4                                       000002692810112005
00060CPU INTEL CELERON 2.5                                       000002858610112005
00061CPU INTEL CELERON 2.6                                       000003054210112005
00062CPU INTEL CELERON 2.8                                       000003098510112005
00063CPU PENTIUM IV -2.4-478 PINOS                               000004590410112005
00064CPU PENTIUM IV -2.8-478 PINOS                               000006305310112005
00065CPU PENTIUM IV -3.2-800 HT-478PINOS                         000008546610112005
00066CPU PENTIUM IV LGA775 -2.66GHZ-CACHE 1MB                    000004349210112005
00067CPU PENTIUM IV LGA775 -3.00GHZ-CACHE 1MB                    000006894710112005
00068DISSIPADOR NOTEBOOK COOLER NOTE PAL-ALUMINIO                000001771410112005
00069DRIVE 3 1/2                                                 000000242910112005
00070DRIVE 3 1/2 PRETO                                           000000026110112005
00071DVD PORTATIL C/ CONTROLE REMOTO-GOTEC                       000002844910112005
00072ESTABILIZADOR SIDE 300 PRETO                                000000384310112005
00073ESTABILIZADOR SIDE SD 300                                   000000332410112005
00074FAX MODEM 56K - INTEL                                       000000316110112005
00075FAX MODEM 56K - LUCENT                                      000000306410112005
00076FAX MODEM 56K - MOTOROLA                                    000000288710112005
00077FAX MODEM 56K - NETGATE                                     000000028110112005
00078FILTRO DE LINHA 05 TOMADAS                                  000000201710112005
00079FONE DE OUVIDO C/MIC. COURO PRETO-01409                     000000343110112005
00080FONE DE OUVIDO C/MIC. PRATA-0021                            000000030310112005
00081FONE DE OUVIDO C/MIC.-CTRL.VOL.-AZUL                        000000111510112005
00082FONE DE OUVIDO C/MIC.-CTRL.VOL.-PRETO/PRATA                 000000171810112005
00083FONE DE OUVIDO C/MIC.-CTRL.VOL.-SILVER-662215               000000194210112005
00084FONTE DE GABINETE ATX 450 WATTS                             000000369810112005
00085FONTE DE GABINETE ATX 500 WATTS                             000000456810112005
00086FONTE DE GABINETE ATX 600 WATTS-GAMER-6707                  000001234810112005
00087FONTE DE GABINETE ATX 700 WATTS-GAMER-6708                  000000014410112005
00088FONTE DE GABINETE ATX CASEMOD 550W                          000001358610112005
00089GABINETE ATX 1256 -KMEX BRANCO                              000001009610112005
00090GABINETE ATX 1256A-KMEX PRETO                               000000971210112005
00091GABINETE ATX 3056B-KMEX BRANCO                              000000971210112005
00092GABINETE ATX 3056C-KMEX PRETO                               000000928910112005
00093GABINETE ATX 3356/3558-KMEX BRANCO                          000000926310112005
00094GABINETE ATX 5451/5456-450WATTS                             000001802610112005
00095GABINETE ATX 6258PP-KMEX PRETO E PRATA                      000001349310112005
00096GABINETE ATX 7658B-KMEX BRANCO                              000001005410112005
00097GABINETE ATX 7658P-KMEX PRETO/PRATA                         000001071510112005
00098GABINETE ATX 8870 PRETO 450WATTS                            000001301710112005
00099GABINETE ATX ALIEN -S/FONTE                                 000003308510112005
00100GABINETE ATX BLACK SERVER-500 WATTS                         000002740410112005
00101GABINETE ATX BLUE LIGHT-5476-PRETO                          000001693510112005
00102GABINETE ATX CENTURION 530 PRETO S/FONTE                    000000415710112005
00103GABINETE ATX CK060-PRETO-450WATTS                           000001266610112005
00104GABINETE ATX CM  01 - 450WATTS                              000001000710112005
00105GABINETE ATX CM  08 - 450WATTS                              000000009510112005
00106GABINETE ATX CN3 - 400WATTS                                 000001562610112005
00107GABINETE ATX DESKTOP 400WATTS                               000001601110112005
00108GABINETE ATX ELLEGANCE -600 WATTS                           000002664810112005
00109GABINETE ATX GAMER VI SAMURAI RED S/FONTE                   000002688610112005
00110GABINETE ATX GAMER X TRANSFORMER-S/FONTE                    000003921610112005
00111GABINETE ATX MINI PRETO-CM9187-KMEX                         000001441310112005
00112GABINETE ATX PERSONAL-500 WATTS                             000001530910112005
00113GABINETE ATX THERMOMETER-500 WATTS                          000002225710112005
00114GABINETE KIT-MINI-TEC/M.OTICO/CX.SOM PRETO                  000002485210112005
00115GABINETE KIT-NORMANDIE PRT/PRA(GAB+TEC+MOUSE+               000002179110112005
00116GABINETE KIT-TEC/M OTICO/CX SOM PRETO-1840                  000002494110112005
00117GABINETE KIT-TEC/M.OTICO/CX.SOM PRETO                       000002058410112005
00118GABINETE KIT-TEC/M.OTICO/CX.SOM PRETO/PRATA                 000002180710112005
00119GABINETE KIT-TEC/MOUSE/CX SOM PRETO                         000001506510112005
00120GABINETE KIT-TEC/MOUSE/CX SOM PRETO-4570                    000002005610112005
00121GABINETE KIT-TEC/MOUSE/CX SOM-1061/1066                     000002765410112005
00122GABINETE KIT-TEC/MOUSE/CX.SOM/W.CAM/MICROF.-                000000196810112005
00123GABINETE KIT-VEZUVIO BRANCO (GAB+TEC+MOUSE+CX               000001943510112005
00124GABINETE KIT-VEZUVIO PRT/PRA(GAB+TEC+MOUSE+CX               000002001810112005
00125GABINETE SERVIDOR IND. NILKO CP 211-S/FONTE                 000004783910112005
00126GABINETE SERVIDOR YY-0221-                                  000000869810112005
00127GAVETA EXTERNA P/CD/DVD USB 2.0 - 0443                      000002080510112005
00128GAVETA EXTERNA P/HD 2,5"(N.BOOK)USB 2.0-0441                000000891610112005
00129GAVETA EXTERNA P/HD 3,5"(IDE) USB 2.0-IUB5A                 000001536810112005
00130GAVETA EXTERNA P/HD 3.5"(IDE) USB 2.0 ALUMINI               000003018410112005
00131GAVETA INTERNA P/HD 3,5"(IDE) MOD.440                       000000424210112005
00132GAVETA INTERNA P/HD 3,5"(IDE) MOD.SK-20                     000000244410112005
00133GRAVADOR CD 52X32X52 -PRETO                                 000000114510112005
00134GRAVADOR CD BRAVIEW-52X32X52                                000000863510112005
00135GRAVADOR CD LG/AOPEN 52X32X52                               000001177710112005
00136GRAVADOR COMBO 52X24X52-PRETO                               000001760410112005
00137GRAVADOR COMBO/BRAVIEW                                      000001197610112005
00138GRAVADOR COMBO/BRAVIEW PRETO                                000001295310112005
00139GRAVADOR COMBO-52X24X52-BRANCO                              000001555410112005
00140GRAVADOR DE DVD/CD BRAVIEW BRANCO                           000001969210112005
00141GRAVADOR DE DVD/CD LG                                       000002388310112005
00142GRAVADOR DE DVD/CD LG 4164B                                 000002291610112005
00143GRAVADOR DE DVD/CD PRETO                                    000002186310112005
00144GRAVADOR DE DVD/CD PRETO 4164B                              000002361210112005
00145GRAVADOR DE DVD-HOME PHILLIPS                               000011403810112005
00146HARD DISK  40 GIGA SERIAL ATA                               000002098410112005
00147HARD DISK  40 GIGA-7200RPM                                  000002130510112005
00148HARD DISK  80 GIGA SERIAL ATA                               000003319310112005
00149HARD DISK  80 GIGA-7200RPM                                  000002409910112005
00150HARD DISK 120 GIGA SERIAL ATA                               000004135510112005
00151HARD DISK 120 GIGA-7200RPM                                  000003156510112005
00152HARD DISK 160 GIGA-7200RPM                                  000003544610112005
00153HARD DISK 200 GIGA-7200RPM                                  000000555110112005
00154HARD DISK 200 GIGA-SERIAL ATA                               000005418810112005
00155HARD DISK SCSI  36.0GB-UWII-10000RPM-68PIN                  000000805310112005
00156HARD DISK SCSI  73.3GB UWII 10000RPM-68PIN                  000012986510112005
00157HARD DISK SCSI  73.3GB-UWII-15000RPM-68PINOS                000024978810112005
00158HARD DISK SCSI 147.0GB-UWII-10000RPM-80PINOS                000025900910112005
00159HOME THEATER C/FM 8000 WATTS-TOUCH SCREEN                   000006702710112005
00160HOME THEATER SYSTEM 5.1  1200 WATTS-SS605                   000001417510112005
00161HOME THEATER SYSTEM 5.1  1800 WATTS-AS819C                  000002395810112005
00162HOME THEATER SYSTEM 5.1  1800 WATTS-SS601                   000001874510112005
00163HOME THEATER SYSTEM 5.1- 2000 WATTS-RED                     000002535910112005
00164HOME THEATER SYSTEM-5.1  8000 WATTS-LEADER                  000000613410112005
00165HOME THEATER SYSTEM-5.1 15000 WATTS-LEADER                  000000085210112005
00166HUB MULTI-FUNCAO - COMBO 8 EM 1                             000000472610112005
00167HUB SWITCH 08 PORTAS 10/100                                 000000585610112005
00168HUB SWITCH 16 PORTAS 10/100                                 000001534210112005
00169HUB SWITCH 24 PORTAS 10/100                                 000003171310112005
00170IMPRESSORA CANON I250                                       000002533510112005
00171IMPRESSORA EPSON FX 890-(80 COLS)                           000016365110112005
00172IMPRESSORA EPSON FX2190                                     000024083110112005
00173IMPRESSORA EPSON LX 300+ (80 COLS)                          000009970710112005
00174IMPRESSORA FOTOGRAFICA DIGITAL GOTEC                        000000640910112005
00175IMPRESSORA HP DESKJET 3745                                  000002850710112005
00176IMPRESSORA HP DESKJET 3845                                  000003822110112005
00177IMPRESSORA HP DESKJET 6540                                  000006961510112005
00178IMPRESSORA HP DESKJET 9300                                  000016966510112005
00179IMPRESSORA HP LASERJET 1020                                 000009294410112005
00180IMPRESSORA HP LASERJET 1022                                 000009333110112005
00181IMPRESSORA HP LASERJET 1320                                 000021219610112005
00182IMPRESSORA HP MULTIFUNCIONAL LJT3015 C/FAX                  000015459410112005
00183IMPRESSORA HP MULTIFUNCIONAL PSC1315                        000000500910112005
00184IMPRESSORA HP MULTIFUNCIONAL PSC1610                        000008554410112005
00185IMPRESSORA HP MULTIFUNCIONAL PSC4255 C/FAX                  000007162710112005
00186IMPRESSORA SAMSUNG MULTIFUNCIONAL SCX-4100                  000010189610112005
00187LEITOR DE CARTOES MULTIPLO-SM/CF/MS/SD/MMC/IB               000000113710112005
00188LEITOR DE CODIGO DE BARRAS BARCODE-CCD                      000001457110112005
00189LEITOR DE DOCUMENTOS MDL-320-22USB(CHEQUE)                  000001427810112005
00190LEITOR DE DOCUMENTOS MDL-320-23USB(CHQ+BARRAS               000002016110112005
00191LICENCA OFFICE 2000 PROFESSIONAL                            000010497510112005
00192LICENCA OFFICE 2003 PROFESSIONAL                            000010939510112005
00193LICENCA OFFICE SMALL BUSSINES 2003                          000008250710112005
00194LICENCA OFFICE XP PROFESSIONAL C/ PUBLISHER                 000014287710112005
00195LICENCA WINDOWS MILLENIUM EDITION (OEM)                     000004038910112005
00196LICENCA WINDOWS PRO 2000 (OEM)                              000005609410112005
00197LICENCA WINDOWS SERVER 2003-05 CLIENTES                     000022873410112005
00198LICENCA WINDOWS XP HOME EDITION (OEM)                       000003204510112005
00199LICENCA WINDOWS XP PROFESSIONAL(OEM)                        000004830610112005
00200M.B..BIOSTAR K8VGA-M-VGA/REDE/SOM-AMD-S754                  000000297810112005
00201M.B..BIOSTAR M7VIG400-VGA/REDE/SOM-AMD                      000002033810112005
00202M.B..BIOSTAR M7VIZ-VGA/REDE/SOM-AMD                         000000201810112005
00203M.B..BIOSTAR NF325-A7-R/S/SATA-AMD-S754                     000002841710112005
00204M.B..BIOSTAR NF4ST-A9-R/S/SATA-AMD-S939                     000003975510112005
00205M.B..BIOSTAR P4M80-M7-VGA/S/R/SATA-S775                     000002716610112005
00206M.B.ASUS A7S8X-MX-REDE/VIDEO/SOM                            000002484110112005
00207M.B.ASUS A7V400-MX-SOM/REDE/VIDEO                           000003145410112005
00208M.B.ASUS K8N-REDE/SOM/SATA-AMD64-S754                       000000003410112005
00209M.B.ASUS K8S-MX-VGA/SOM/REDE AMD64                          000003241310112005
00210M.B.ASUS K8V-X-REDE/SOM/SATA AMD64                          000003344510112005
00211M.B.ASUS P4S800-DX/SOM/REDE                                 000003982910112005
00212M.B.ASUS P4S800-MX-VGA/REDE/SOM                             000003676710112005
00213M.B.ASUS P4T-OFFBOARD 423 PINOS                             000001823310112005
00214M.B.DIGITRON K7VMM+ -VGA/SOM/REDE-AMD                       000000165210112005
00215M.B.FASTFAME-8IFI-400MHZ-PIV-S/R-                           000000156210112005
00216M.B.INTEL D845GVSR-REDE/SOM/VIDEO-HT                        000003708910112005
00217M.B.INTEL D865PERL-SOM-HT                                   000005902210112005
00218M.B.INTEL SERVER BOARD SE7501BR2/SCSI/GLAN-DU               000024967510112005
00219M.B.PCCHIPS863-AMD-VGA/SOM/REDE/FAX- 333                    000002142810112005
00220M.B.PCCHIPS900-P4-INTEL850-423 PINOS                        000000252710112005
00221MALETA MOCHILA PALM SPRING C/CARRINHO                       000002469110112005
00222MALETA NOTEBOOK ASUS-POLIESTER PRETA                        000000883110112005
00223MALETA NOTEBOOK C/CARRINHO-COURO NATURAL PRET               000001990510112005
00224MALETA NOTEBOOK MOD 1110-POLIESTER PRETA                    000000488210112005
00225MALETA NOTEBOOK MOD 1917-COURO S.PRETO-17"                  000000968910112005
00226MALETA NOTEBOOK MOD 9090-COURO S. MARROM                    000000008510112005
00227MALETA P/CAMERA FOTOGRAFICA                                 000000355710112005
00228MAO DE OBRA DE MONTAGEM                                     000000243110112005
00229MAO DE OBRA DE SERVICO                                      000000044210112005
00230MEMORIA  16MB HP LASERJET 4000,8000 SDRAM                   000000004710112005
00231MEMORIA  32MB IDE 40 PINOS TRANSCEND                        000001612310112005
00232MEMORIA  64MB IDE 40 PINOS TRANSCEND                        000002220110112005
00233MEMORIA DDR PC266-128MB NOTE BOOKS DIVERS                   000000905310112005
00234MEMORIA DDR PC266-256MB-NOTE BOOKS DIVERSOS                 000001118610112005
00235MEMORIA DDR PC266-512MB-NOTE BOOKS DIVERSOS                 000000189410112005
00236MEMORIA DDR PC333-256MB-NOTE BOOKS DIVERSOS                 000001171310112005
00237MEMORIA DDR PC333-512MB-NOTE BOOKS DIVERSOS                 000002129510112005
00238MEMORIA DDR-ECC-PC266-1.0GB                                 000007168210112005
00239MEMORIA DDR-ECC-PC266-1.0GB W/REGISTER                      000008083110112005
00240MEMORIA DDR-ECC-PC266-512MB W/REGISTER                      000004635310112005
00241MEMORIA DDR-PC333-1000-1GB W/REGISTER                       000005697810112005
00242MEMORIA DDR-PC333-256MB                                     000000932810112005
00243MEMORIA DDR-PC333-512MB                                     000000165810112005
00244MEMORIA DDR-PC400 256MB                                     000000090110112005
00245MEMORIA DDR-PC400 512MB                                     000001669710112005
00246MEMORIA DDR-PC400-1000-1.0GB                                000003703510112005
00247MEMORIA DIMM PC 100 256MB                                   000001476110112005
00248MEMORIA DIMM PC 133 128MB                                   000000871710112005
00249MEMORIA DIMM PC 133 256MB                                   000001251910112005
00250MEMORIA DIMM PC 133 512MB                                   000002893610112005
00251MEMORIA MEMORYSTICK 128MB CENTRON                           000001596110112005
00252MEMORIA MEMORYSTICK 128MB DUO PQI                           000002261310112005
00253MEMORIA MEMORYSTICK 128MB DUO TRANSCEND                     000002778310112005
00254MEMORIA MEMORYSTICK 128MB PQI                               000001522110112005
00255MEMORIA MEMORYSTICK 128MB TRANSCEND                         000001684710112005
00256MEMORIA MEMORYSTICK 256MB DUO PQI                           000002749210112005
00257MEMORIA MEMORYSTICK 256MB DUO TRANSCEND                     000003044510112005
00258MEMORIA MEMORYSTICK 256MB PRO PQI                           000002719510112005
00259MEMORIA MEMORYSTICK 256MB PRO TRANSCEND                     000003014810112005
00260MEMORIA P/ CAMERA DIGITAL 128MB-30X                         000000908910112005
00261MEMORIA P/ CAMERA DIGITAL 128MB-MMC-TRANSCEND               000000880610112005
00262MEMORIA P/ CAMERA DIGITAL 128MB-SD 30X-TRANSC               000000823610112005
00263MEMORIA P/ CAMERA DIGITAL 128MB-SD 45X-TRANSC               000000777910112005
00264MEMORIA P/ CAMERA DIGITAL 256MB-MMC-TRANSCEND               000001732510112005
00265MEMORIA P/ CAMERA DIGITAL 256MB-SD 45X-TRANSC               000001845810112005
00266MEMORIA P/ CAMERA DIGITAL 512MB-SD 45X-TRANSC               000003408110112005
00267MEMORIA RAMBUS 256MB-PC 800                                 000002859210112005
00268MICRO AMD2500/32BITS-HD40/256/CD/R/S                        000009796310112005
00269MICRO AMD2500-HD20/256/GRAVADOR/CAMERA                      000009981710112005
00270MICRO AMD2500-M7VIG-HD40/256MB/CD/R/SOM                     000009356910112005
00271MICRO AMD2800/32BITS/HD80/256/COMBO                         000011997410112005
00272MICROFONE PEDESTAL                                          000000056510112005
00273MICROFONE PEDESTAL PRETO                                    000000066910112005
00274MODEM ADSL USB                                              000002105910112005
00275MONITOR 15" BRAVIEW                                         000002901910112005
00276MONITOR 15" BRAVIEW PRETO                                   000003091210112005
00277MONITOR 15"SAMSUNG 591V                                     000003238510112005
00278MONITOR 17" BRAVIEW                                         000003724210112005
00279MONITOR 17" BRAVIEW PRATA                                   000003848710112005
00280MONITOR 17" BRAVIEW PRETO                                   000003772510112005
00281MONITOR 17"SAMSUNG                                          000004054910112005
00282MONITOR 17"SAMSUNG 793DF-FLATNESS                           000004753810112005
00283MONITOR 17"SAMSUNG 793V PRETO                               000004248710112005
00284MONITOR 17"SAMSUNG 794MB-FLATNESS PRETO/PRATA               000004605210112005
00285MONITOR 19"SAMSUNG 997MB PRATA/PRETO-FLATNESS               000008117210112005
00286MONITOR 21"SAMSUNG - 1100PLUS                               000002099510112005
00287MONITOR BRIGHT LCD 17" PRETO C/CXS ACUSTICA                 000011364310112005
00288MONITOR SANSUNG LCD 15"                                     000008769110112005
00289MONITOR SANSUNG LCD 17"                                     000012340810112005
00290MONITOR-BASE MULTIMIDIA MONITOR PHILIPS                     000000929810112005
00291MOUSE MINI OPTICO PS2/USB 3B PEROLA MOP-59                  000000431510112005
00292MOUSE MINI OPTICO PS2/USB 3B VERMELHO MOP-18-               000000382310112005
00293MOUSE MINI OPTICO S/FIO USB 3B-AZUL/GRAFITE R               000000916310112005
00294MOUSE OPTICO C/FIO 3B VCOM PS2 PRATA/PRETO SW               000000289910112005
00295MOUSE OPTICO PS2 C/SCROLL-BRANCO                            000000194710112005
00296MOUSE OPTICO PS2 C/SCROLL-BRANCO/CINZA-033PS-               000000208610112005
00297MOUSE OPTICO PS2 C/SCROLL-PRATA E PRETO                     000000202510112005
00298MOUSE OPTICO PS2 C/SCROLL-PRETO                             000000197110112005
00299MOUSE OPTICO PS2 C/SCROLL-PRETO-233PP-KMEX                  000000279310112005
00300MOUSE OPTICO PS2 CINZA 5B  WOP-35                           000000452910112005
00301MOUSE OPTICO PS2/USB 3B AZUL SWOP-3-2                       000000434810112005
00302MOUSE OPTICO PS2/USB 3B DOURADO SWOP-3-3                    000000434810112005
00303MOUSE OPTICO PS2/USB 4B CINZA SWOP48                        000000434810112005
00304MOUSE OPTICO PS2/USB 5B CINZA WOP-49Z                       000000460110112005
00305MOUSE OPTICO S/FIO PS2/USB 6B CINZA RP-649                  000000989510112005
00306MOUSE OPTICO S/FIO PS2/USB CINZA 8B RP-680                  000000926910112005
00307MOUSE OPTICO USB 5B PRETO/PRATA MULTI-RESOLUC               000000048910112005
00308MOUSE OPTICO-PS2 CINZA GOLD SHIP +0350                      000000622110112005
00309MOUSE PS2                                                   000000051310112005
00310MOUSE PS2 C/SCROLL                                          000000067510112005
00311MOUSE PS2 C/SCROLL ERGONOMICO PRETO                         000000113310112005
00312MOUSE PS2 C/SCROLL PRETO                                    000000075910112005
00313MP3 2.0 128MB -FM/MP3/VOZ/DADOS-JETFLASH                    000003655510112005
00314MP3 PLAYER + FLASH DISK 256MB SONY IMP-100                  000003330510112005
00315N.BOOK (DRIVE 3 1/2 EXTERNO USB)                            000001593910112005
00316N.BOOK (LED LIGHT PARA TECLADO)-1420                        000000435310112005
00317N.BOOK (REDE CARTAO PCMCIA 10/100)                          000000659210112005
00318N.BOOK (WIRELESS CARTAO PCMCIA 54MB 802.11G)                000001229910112005
00319N.BOOK-(FAX PCMCIA 56K )                                    000001512710112005
00320N.BOOK-(HD 20GB SLIMLINE 9.5MM)                             000003205410112005
00321N.BOOK-(HD 40GB SLIMLINE 9.5MM)                             000003330510112005
00322N.BOOK-(HD 60GB SLIMLINE 9.5MM)                             000004537210112005
00323NO BREAK  600SFX NET STATION BIVOLT-BSELADA                 000002629710112005
00324NO BREAK  600SFX NET STATION UST115-BSELADA                 000002033510112005
00325NO BREAK 1200SFX NET STATION UST115-BSELADA                 000003670810112005
00326NO BREAK 1300VA-ENERGETIC POWER MONO                        000003842210112005
00327PAINEL MULTI CARD READER & WRITER-USB 2.0-5 1               000001585910112005
00328PEDESTAL P/ HOME THEATER-GOLD SHIP                          000000645410112005
00329PEN DRIVE-   1GB                                            000004293310112005
00330PEN DRIVE- 128MB                                            000000840510112005
00331PEN DRIVE- 256MB                                            000001274210112005
00332PEN DRIVE- 256MB - CONECTOR USB EMBUTIDO                    000001307710112005
00333PEN DRIVE- 512MB                                            000002156210112005
00334PEN DRIVE RELOGIO 128-E MP3 MEGA WATCH                      000000440910112005
00335PEN DRIVE RELOGIO-128 MB-RELOGIO DE PULSO                   000002320510112005
00336PLACA DE REDE 3COM 10/100  OEM                              000000775710112005
00337PLACA DE REDE NE 2000 10/100-PCI                            000000016410112005
00338PLACA DE REDE WIRELESS -11MPBS                              000001008210112005
00339PLACA DE SOM 32 BITS                                        000000283310112005
00340PLACA DE SOM CRIATIVE LIVE 7.1                              000000243110112005
00341PLACA PCI COM 02 SAIDAS USB                                 000000317510112005
00342PLACA PCI COM 04 SAIDAS USB                                 000000317510112005
00343SCANNER DE MAO INFOSCAN- PORTATIL                           000001869810112005
00344SCANNER DE MAO INFOSCAN-PORTATIL PROFESSIONAL               000000321510112005
00345SCANNER GOTEC VISION 5760                                   000001680310112005
00346SCANNER PROFFISSIONAL GOTEC-6760                            000002323810112005
00347TECLADO ABNT 105/107 PS2                                    000000156410112005
00348TECLADO ABNT 105/107 PS2 ERGONOMICO                         000000206310112005
00349TECLADO ABNT 105/107 PS2 ERGONOMICO PRETO                   000000212210112005
00350TECLADO ABNT 105/107 PS2 PRETO                              000000167310112005
00351TECLADO COM MOUSE E JOYSTICK-GAMEBOARD                      000001882410112005
00352TECLADO ERGONOMICO PS2 PRETO-3990                           000000488210112005
00353TECLADO KIT 3X1 PRATA-TECLADO/MOUSE/CX.SOM                  000000507410112005
00354TECLADO KIT 3X1 PRETO-TECLADO/MOUSE/CX.SOM                  000000538510112005
00355TECLADO MULTIMIDIA C/ MOUSE OPTICO PS2-PRETO                000000765910112005
00356TECLADO MULTIMIDIA E MOUSE S/FIO RF PS2 BRANC               000000967310112005
00357TECLADO MULTIMIDIA E MOUSE S/FIO RF PS2 PRETO               000001077710112005
00358TECLADO MULTIMIDIA OFFICE C/HUB USB                         000000959910112005
00359TECLADO MULTIMIDIA PS2 ABNT 3428-KMEX BRANCO                000000231110112005
00360TECLADO MULTIMIDIA PS2 ABNT 3428-KMEX PRETO                 000000238610112005
00361TECLADO MULTIMIDIA PS2 ABNT 3728-KMEX PRATA/P               000000288510112005
00362TECLADO MULTIMIDIA PS2 ABNT 7228-KMEX PRATA/P               000000040210112005
00363TECLADO MULTIMIDIA USB ABNT 7228-KMEX PRATA/P               000000638410112005
00364TECLADO OFFICE E MOUSE OPTICO RF-ICE PACK-104               000002199710112005
00365TECLADO OFFICE E MOUSE OPTICO RF-KIT INTRUDER               000002044310112005
00366TECLADO OFFICE SHIP C/SCROLL PAD USB-1045                   000001105510112005
00367TECLADO SEM FIO C/ SCROLL MOUSE-1660                        000001126710112005
00368TECLADO TELEFONE C/ FONE DE OUVIDO -PS2                     000001025510112005
00369TOMADA ADAPTADORA P/ TELEFONE M/F+RJ11F                     000000032910112005
00370TOMADA ADAPTADORA P/ TELEFONE M/RJ11F                       000000015310112005
00371VGA  32MB-RIVA TNT/64 BITS/3D                               000000113110112005
00372VGA  64MB-GFORCE  MX4000 XFP 8X /TV                         000001367810112005
00373VGA 128MB-GFORCE FX5200-8X                                  000001988810112005
00374VGA 128MB-GFORCE MX4000 XFP 8X /TV                          000001633310112005
00375VGA 256MB-ATI RADEON 9600PRO-8X                             000004798910112005
00376VGA 256MB-ATI RADEON 9600XT-8X                              000005929810112005
00377VGA 256MB-GFORCE FX5200-8X                                  000003111210112005
00378VGA 256MB-GFORCE FX5500-8X                                  000003379610112005
00379VGA 256MB-GFORCE FX5700-8X                                  000005378910112005
00380VGA PIXEL VIEW-PLAY TV CAPTURA C/RADIO FM                   000001805710112005